{
  "_format": "hh-sol-artifact-1",
  "contractName": "PythAggregatorV3",
  "sourceName": "contracts/PythAggregatorV3.sol",
  "abi": [
    {
      "inputs": [
        {
          "internalType": "address",
          "name": "_pyth",
          "type": "address"
        },
        {
          "internalType": "bytes32",
          "name": "_priceId",
          "type": "bytes32"
        }
      ],
      "stateMutability": "nonpayable",
      "type": "constructor"
    },
    {
      "inputs": [],
      "name": "decimals",
      "outputs": [
        {
          "internalType": "uint8",
          "name": "",
          "type": "uint8"
        }
      ],
      "stateMutability": "view",
      "type": "function"
    },
    {
      "inputs": [],
      "name": "description",
      "outputs": [
        {
          "internalType": "string",
          "name": "",
          "type": "string"
        }
      ],
      "stateMutability": "pure",
      "type": "function"
    },
    {
      "inputs": [
        {
          "internalType": "uint256",
          "name": "",
          "type": "uint256"
        }
      ],
      "name": "getAnswer",
      "outputs": [
        {
          "internalType": "int256",
          "name": "",
          "type": "int256"
        }
      ],
      "stateMutability": "view",
      "type": "function"
    },
    {
      "inputs": [
        {
          "internalType": "uint80",
          "name": "_roundId",
          "type": "uint80"
        }
      ],
      "name": "getRoundData",
      "outputs": [
        {
          "internalType": "uint80",
          "name": "roundId",
          "type": "uint80"
        },
        {
          "internalType": "int256",
          "name": "answer",
          "type": "int256"
        },
        {
          "internalType": "uint256",
          "name": "startedAt",
          "type": "uint256"
        },
        {
          "internalType": "uint256",
          "name": "updatedAt",
          "type": "uint256"
        },
        {
          "internalType": "uint80",
          "name": "answeredInRound",
          "type": "uint80"
        }
      ],
      "stateMutability": "view",
      "type": "function"
    },
    {
      "inputs": [
        {
          "internalType": "uint256",
          "name": "",
          "type": "uint256"
        }
      ],
      "name": "getTimestamp",
      "outputs": [
        {
          "internalType": "uint256",
          "name": "",
          "type": "uint256"
        }
      ],
      "stateMutability": "view",
      "type": "function"
    },
    {
      "inputs": [],
      "name": "latestAnswer",
      "outputs": [
        {
          "internalType": "int256",
          "name": "",
          "type": "int256"
        }
      ],
      "stateMutability": "view",
      "type": "function"
    },
    {
      "inputs": [],
      "name": "latestRound",
      "outputs": [
        {
          "internalType": "uint256",
          "name": "",
          "type": "uint256"
        }
      ],
      "stateMutability": "view",
      "type": "function"
    },
    {
      "inputs": [],
      "name": "latestRoundData",
      "outputs": [
        {
          "internalType": "uint80",
          "name": "roundId",
          "type": "uint80"
        },
        {
          "internalType": "int256",
          "name": "answer",
          "type": "int256"
        },
        {
          "internalType": "uint256",
          "name": "startedAt",
          "type": "uint256"
        },
        {
          "internalType": "uint256",
          "name": "updatedAt",
          "type": "uint256"
        },
        {
          "internalType": "uint80",
          "name": "answeredInRound",
          "type": "uint80"
        }
      ],
      "stateMutability": "view",
      "type": "function"
    },
    {
      "inputs": [],
      "name": "latestTimestamp",
      "outputs": [
        {
          "internalType": "uint256",
          "name": "",
          "type": "uint256"
        }
      ],
      "stateMutability": "view",
      "type": "function"
    },
    {
      "inputs": [],
      "name": "priceId",
      "outputs": [
        {
          "internalType": "bytes32",
          "name": "",
          "type": "bytes32"
        }
      ],
      "stateMutability": "view",
      "type": "function"
    },
    {
      "inputs": [],
      "name": "pyth",
      "outputs": [
        {
          "internalType": "contract IPyth",
          "name": "",
          "type": "address"
        }
      ],
      "stateMutability": "view",
      "type": "function"
    },
    {
      "inputs": [
        {
          "internalType": "bytes[]",
          "name": "priceUpdateData",
          "type": "bytes[]"
        }
      ],
      "name": "updateFeeds",
      "outputs": [],
      "stateMutability": "payable",
      "type": "function"
    },
    {
      "inputs": [],
      "name": "version",
      "outputs": [
        {
          "internalType": "uint256",
          "name": "",
          "type": "uint256"
        }
      ],
      "stateMutability": "pure",
      "type": "function"
    }
  ],
  "bytecode": "0x60806040523480156200001157600080fd5b506040516200139f3803806200139f83398181016040528101906200003791906200012c565b8060008190555081600160006101000a81548173ffffffffffffffffffffffffffffffffffffffff021916908373ffffffffffffffffffffffffffffffffffffffff160217905550505062000173565b600080fd5b600073ffffffffffffffffffffffffffffffffffffffff82169050919050565b6000620000b9826200008c565b9050919050565b620000cb81620000ac565b8114620000d757600080fd5b50565b600081519050620000eb81620000c0565b92915050565b6000819050919050565b6200010681620000f1565b81146200011257600080fd5b50565b6000815190506200012681620000fb565b92915050565b6000806040838503121562000146576200014562000087565b5b60006200015685828601620000da565b9250506020620001698582860162000115565b9150509250929050565b61121c80620001836000396000f3fe6080604052600436106100c25760003560e01c80638205bf6a1161007f578063b633620c11610059578063b633620c14610272578063bc36c0a9146102af578063f98d06f0146102cb578063feaf968c146102f6576100c2565b80638205bf6a146101c95780639a6fc8f5146101f4578063b5ab58dc14610235576100c2565b806331189334146100c7578063313ce567146100f257806350d25bcd1461011d57806354fd4d5014610148578063668a0f02146101735780637284e4161461019e575b600080fd5b3480156100d357600080fd5b506100dc610325565b6040516100e99190610943565b60405180910390f35b3480156100fe57600080fd5b5061010761032b565b604051610114919061097a565b60405180910390f35b34801561012957600080fd5b50610132610404565b60405161013f91906109ae565b60405180910390f35b34801561015457600080fd5b5061015d6104b5565b60405161016a91906109e2565b60405180910390f35b34801561017f57600080fd5b506101886104be565b60405161019591906109e2565b60405180910390f35b3480156101aa57600080fd5b506101b36104cd565b6040516101c09190610a8d565b60405180910390f35b3480156101d557600080fd5b506101de6104ed565b6040516101eb91906109e2565b60405180910390f35b34801561020057600080fd5b5061021b60048036038101906102169190610b05565b61059b565b60405161022c959493929190610b41565b60405180910390f35b34801561024157600080fd5b5061025c60048036038101906102579190610bc0565b61066c565b60405161026991906109ae565b60405180910390f35b34801561027e57600080fd5b5061029960048036038101906102949190610bc0565b61067d565b6040516102a691906109e2565b60405180910390f35b6102c960048036038101906102c49190610c52565b61068e565b005b3480156102d757600080fd5b506102e061082e565b6040516102ed9190610d1e565b60405180910390f35b34801561030257600080fd5b5061030b610854565b60405161031c959493929190610b41565b60405180910390f35b60005481565b600080600160009054906101000a900473ffffffffffffffffffffffffffffffffffffffff1673ffffffffffffffffffffffffffffffffffffffff166396834ad36000546040518263ffffffff1660e01b815260040161038b9190610943565b608060405180830381865afa1580156103a8573d6000803e3d6000fd5b505050506040513d601f19601f820116820180604052508101906103cc9190610ef8565b905080604001517fffffffffffffffffffffffffffffffffffffffffffffffffffffffffffffffff6103fe9190610f61565b91505090565b600080600160009054906101000a900473ffffffffffffffffffffffffffffffffffffffff1673ffffffffffffffffffffffffffffffffffffffff166396834ad36000546040518263ffffffff1660e01b81526004016104649190610943565b608060405180830381865afa158015610481573d6000803e3d6000fd5b505050506040513d601f19601f820116820180604052508101906104a59190610ef8565b9050806000015160070b91505090565b60006001905090565b60006104c86104ed565b905090565b60606040518060600160405280603e81526020016111a9603e9139905090565b600080600160009054906101000a900473ffffffffffffffffffffffffffffffffffffffff1673ffffffffffffffffffffffffffffffffffffffff166396834ad36000546040518263ffffffff1660e01b815260040161054d9190610943565b608060405180830381865afa15801561056a573d6000803e3d6000fd5b505050506040513d601f19601f8201168201806040525081019061058e9190610ef8565b9050806060015191505090565b600080600080600080600160009054906101000a900473ffffffffffffffffffffffffffffffffffffffff1673ffffffffffffffffffffffffffffffffffffffff166396834ad36000546040518263ffffffff1660e01b81526004016106019190610943565b608060405180830381865afa15801561061e573d6000803e3d6000fd5b505050506040513d601f19601f820116820180604052508101906106429190610ef8565b905086816000015160070b826060015183606001518a955095509550955095505091939590929450565b6000610676610404565b9050919050565b60006106876104ed565b9050919050565b6000600160009054906101000a900473ffffffffffffffffffffffffffffffffffffffff1673ffffffffffffffffffffffffffffffffffffffff1663d47eed4584846040518363ffffffff1660e01b81526004016106ed929190611111565b602060405180830381865afa15801561070a573d6000803e3d6000fd5b505050506040513d601f19601f8201168201806040525081019061072e9190611135565b9050600160009054906101000a900473ffffffffffffffffffffffffffffffffffffffff1673ffffffffffffffffffffffffffffffffffffffff1663ef9e5e288285856040518463ffffffff1660e01b815260040161078e929190611111565b6000604051808303818588803b1580156107a757600080fd5b505af11580156107bb573d6000803e3d6000fd5b50505050503373ffffffffffffffffffffffffffffffffffffffff16476040516107e490611193565b60006040518083038185875af1925050503d8060008114610821576040519150601f19603f3d011682016040523d82523d6000602084013e610826565b606091505b505050505050565b600160009054906101000a900473ffffffffffffffffffffffffffffffffffffffff1681565b600080600080600080600160009054906101000a900473ffffffffffffffffffffffffffffffffffffffff1673ffffffffffffffffffffffffffffffffffffffff166396834ad36000546040518263ffffffff1660e01b81526004016108ba9190610943565b608060405180830381865afa1580156108d7573d6000803e3d6000fd5b505050506040513d601f19601f820116820180604052508101906108fb9190610ef8565b90508060600151955085816000015160070b826060015183606001518995509550955095509550509091929394565b6000819050919050565b61093d8161092a565b82525050565b60006020820190506109586000830184610934565b92915050565b600060ff82169050919050565b6109748161095e565b82525050565b600060208201905061098f600083018461096b565b92915050565b6000819050919050565b6109a881610995565b82525050565b60006020820190506109c3600083018461099f565b92915050565b6000819050919050565b6109dc816109c9565b82525050565b60006020820190506109f760008301846109d3565b92915050565b600081519050919050565b600082825260208201905092915050565b60005b83811015610a37578082015181840152602081019050610a1c565b60008484015250505050565b6000601f19601f8301169050919050565b6000610a5f826109fd565b610a698185610a08565b9350610a79818560208601610a19565b610a8281610a43565b840191505092915050565b60006020820190508181036000830152610aa78184610a54565b905092915050565b6000604051905090565b600080fd5b600080fd5b600069ffffffffffffffffffff82169050919050565b610ae281610ac3565b8114610aed57600080fd5b50565b600081359050610aff81610ad9565b92915050565b600060208284031215610b1b57610b1a610ab9565b5b6000610b2984828501610af0565b91505092915050565b610b3b81610ac3565b82525050565b600060a082019050610b566000830188610b32565b610b63602083018761099f565b610b7060408301866109d3565b610b7d60608301856109d3565b610b8a6080830184610b32565b9695505050505050565b610b9d816109c9565b8114610ba857600080fd5b50565b600081359050610bba81610b94565b92915050565b600060208284031215610bd657610bd5610ab9565b5b6000610be484828501610bab565b91505092915050565b600080fd5b600080fd5b600080fd5b60008083601f840112610c1257610c11610bed565b5b8235905067ffffffffffffffff811115610c2f57610c2e610bf2565b5b602083019150836020820283011115610c4b57610c4a610bf7565b5b9250929050565b60008060208385031215610c6957610c68610ab9565b5b600083013567ffffffffffffffff811115610c8757610c86610abe565b5b610c9385828601610bfc565b92509250509250929050565b600073ffffffffffffffffffffffffffffffffffffffff82169050919050565b6000819050919050565b6000610ce4610cdf610cda84610c9f565b610cbf565b610c9f565b9050919050565b6000610cf682610cc9565b9050919050565b6000610d0882610ceb565b9050919050565b610d1881610cfd565b82525050565b6000602082019050610d336000830184610d0f565b92915050565b600080fd5b7f4e487b7100000000000000000000000000000000000000000000000000000000600052604160045260246000fd5b610d7682610a43565b810181811067ffffffffffffffff82111715610d9557610d94610d3e565b5b80604052505050565b6000610da8610aaf565b9050610db48282610d6d565b919050565b60008160070b9050919050565b610dcf81610db9565b8114610dda57600080fd5b50565b600081519050610dec81610dc6565b92915050565b600067ffffffffffffffff82169050919050565b610e0f81610df2565b8114610e1a57600080fd5b50565b600081519050610e2c81610e06565b92915050565b60008160030b9050919050565b610e4881610e32565b8114610e5357600080fd5b50565b600081519050610e6581610e3f565b92915050565b600081519050610e7a81610b94565b92915050565b600060808284031215610e9657610e95610d39565b5b610ea06080610d9e565b90506000610eb084828501610ddd565b6000830152506020610ec484828501610e1d565b6020830152506040610ed884828501610e56565b6040830152506060610eec84828501610e6b565b60608301525092915050565b600060808284031215610f0e57610f0d610ab9565b5b6000610f1c84828501610e80565b91505092915050565b60008160000b9050919050565b7f4e487b7100000000000000000000000000000000000000000000000000000000600052601160045260246000fd5b6000610f6c82610f25565b9150610f7783610f25565b9250828202610f8581610f25565b9150808214610f9757610f96610f32565b5b5092915050565b600082825260208201905092915050565b6000819050919050565b600082825260208201905092915050565b82818337600083830152505050565b6000610fe58385610fb9565b9350610ff2838584610fca565b610ffb83610a43565b840190509392505050565b6000611013848484610fd9565b90509392505050565b600080fd5b600080fd5b600080fd5b6000808335600160200384360303811261104857611047611026565b5b83810192508235915060208301925067ffffffffffffffff8211156110705761106f61101c565b5b60018202360383131561108657611085611021565b5b509250929050565b6000602082019050919050565b60006110a78385610f9e565b9350836020840285016110b984610faf565b8060005b878110156110ff5784840389526110d4828461102b565b6110df868284611006565b95506110ea8461108e565b935060208b019a5050506001810190506110bd565b50829750879450505050509392505050565b6000602082019050818103600083015261112c81848661109b565b90509392505050565b60006020828403121561114b5761114a610ab9565b5b600061115984828501610e6b565b91505092915050565b600081905092915050565b50565b600061117d600083611162565b91506111888261116d565b600082019050919050565b600061119e82611170565b915081905091905056fe4120706f7274206f66206120636861696e6c696e6b2061676772656761746f7220706f77657265642062792070797468206e6574776f726b206665656473a26469706673582212203e719bdee82cf94010b80e52323f3dcf3849dc1000b7ef8a5ba1398e29087aee64736f6c63430008180033",
  "linkReferences": {},
  "deployedLinkReferences": {}
}